24899201908202019082099S0999999N0000132ABIERTO~8CEA00EC3CD065AFDAE7EBF3AE69D206
2480000000000008001381880PROTECCION -ADMINISTRADORA DE 049936TES UVR TASA CONVENIDA        0000002200000000000000000000000000000       00000000000000000000002200000000COL17CT02088210017AUVRTUVT172302232006022320230223000475000000000000000000+A           00000000
2480000000000008001381880PROTECCION -ADMINISTRADORA DE 053059TES TASA FIJA TOTALES         0000400000000000000000000000000000000       00000000000000000000400000000000COL17CT02385210016ACOPTFIT162407242008072420240724001000000000000000000000+A           00000000
2480000000000008001381880PROTECCION -ADMINISTRADORA DE 054542TES TASA FIJA TOTALES         0000500000000000000000000000000000000       00000000000000000000500000000000COL17CT02625210015ACOPTFIT152608262011082620260826000750000000000000000000+A           00000000
2480000000000008001381880PROTECCION -ADMINISTRADORA DE 054816TES TASA FIJA TOTALES         0001400000000000000000000000000000000       00000000000000000001400000000000COL17CT02864210010ACOPTFIT100405222012050420220504000700000000000000000000+A           00000000
2480000000000008001381880PROTECCION -ADMINISTRADORA DE 054876TES UVR TASA CONVENIDA        0000001500000000000000000000000000000       00000000000000000000001500000000COL17CT02872210010AUVRTUVT101003212011031020210310000350000000000000000000+A           00000000
2480000000000008001381880PROTECCION -ADMINISTRADORA DE 055029TES TASA FIJA TOTALES         0000450000000000000000000000000000000       00000000000000000000450000000000COL17CT02914210016ACOPTFIT162804282012042820280428000600000000000000000000+A           00000000
2480000000000008001381880PROTECCION -ADMINISTRADORA DE 055197TES UVR TASA CONVENIDA        0000000950000000000000000000000000000       00000000000000000000000950000000COL17CT02963210020AUVRTUVT202503332013032520330325000300000000000000000000+A           00000000
2480000000000008001381880PROTECCION -ADMINISTRADORA DE 055684TES TASA FIJA TOTALES         0000300000000000000000000000000000000       00000000000000000000300000000000COL17CT03342210016ACOPTFIT161809302014091820300918000775000000000000000000+A           00000000
2480000000000008001381880PROTECCION -ADMINISTRADORA DE 055738TES UVR TASA CONVENIDA        0000001000000000000000000000000000000       00000000000000000000001000000000COL17CT03359210011AUVRTUVT110705252014050720250507000350000000000000000000+A           00000000
2480000000000008001381880PROTECCION -ADMINISTRADORA DE 055930TES UVR TASA CONVENIDA        0000001200000000000000000000000000000       00000000000000000000001200000000COL17CT03441210020AUVRTUVT200404352015040420350404000475000000000000000000+A           00000000
2480000000000008001381880PROTECCION -ADMINISTRADORA DE 056059TES TASA FIJA TOTALES         0000350000000000000000000000000000000       00000000000000000000350000000000COL17CT03490210016ACOPTFIT163006322016063020320630000700000000000000000000+A           00000000
2480000000000008001381880PROTECCION -ADMINISTRADORA DE 056091TES UVR TASA CONVENIDA        0000001300000000000000000000000000000       00000000000000000000001300000000COL17CT03508210011AUVRTUVT111703272016031720270317000330000000000000000000+A           00000000
2480000000000008001381880PROTECCION -ADMINISTRADORA DE 056219TES TASA FIJA TOTALES         0000200000000000000000000000000000000       00000000000000000000200000000000COL17CT03557210008ACOPTFIT082611252017112620251126000625000000000000000000+A           00000000
2480000000000008001381880PROTECCION -ADMINISTRADORA DE 056246TES UVR INVERS INSTITUCIONALES0000000300000000000000000000000000000       00000000000000000000000300000000COL17CT03565210032AUVRTUVT321606492017061620490616000375000000000000000000+A           00000000
2480000100830008001704943FONDO DE CESANTIAS PROTECCION 049936TES UVR TASA CONVENIDA        0000052772500000000000000000000000000       00000000000000000000052772500000COL17CT02088210017AUVRTUVT172302232006022320230223000475000000000000000000+A           00000000
2480000100830008001704943FONDO DE CESANTIAS PROTECCION 053059TES TASA FIJA TOTALES         0004174900000000000000000000000000000       00000000000000000004174900000000COL17CT02385210016ACOPTFIT162407242008072420240724001000000000000000000000+A           00000000
2480000100830008001704943FONDO DE CESANTIAS PROTECCION 054542TES TASA FIJA TOTALES         0012800000000000000000000000000000000       00000000000000000012800000000000COL17CT02625210015ACOPTFIT152608262011082620260826000750000000000000000000+A           00000000
2480000100830008001704943FONDO DE CESANTIAS PROTECCION 054816TES TASA FIJA TOTALES         0000250000000000000000000000000000000       00000000000000000000250000000000COL17CT02864210010ACOPTFIT100405222012050420220504000700000000000000000000+A           00000000
2480000100830008001704943FONDO DE CESANTIAS PROTECCION 054876TES UVR TASA CONVENIDA        0000032290900000000000000000000000000       00000000000000000000032290900000COL17CT02872210010AUVRTUVT101003212011031020210310000350000000000000000000+A           00000000
2480000100830008001704943FONDO DE CESANTIAS PROTECCION 055029TES TASA FIJA TOTALES         0010500000000000000000000000000000000       00000000000000000010500000000000COL17CT02914210016ACOPTFIT162804282012042820280428000600000000000000000000+A           00000000
2480000100830008001704943FONDO DE CESANTIAS PROTECCION 055684TES TASA FIJA TOTALES         0006700000000000000000000000000000000       00000000000000000006700000000000COL17CT03342210016ACOPTFIT161809302014091820300918000775000000000000000000+A           00000000
2480000100830008001704943FONDO DE CESANTIAS PROTECCION 055738TES UVR TASA CONVENIDA        0000047500000000000000000000000000000       00000000000000000000047500000000COL17CT03359210011AUVRTUVT110705252014050720250507000350000000000000000000+A           00000000
2480000100830008001704943FONDO DE CESANTIAS PROTECCION 055930TES UVR TASA CONVENIDA        0000016129000000000000000000000000000       00000000000000000000016129000000COL17CT03441210020AUVRTUVT200404352015040420350404000475000000000000000000+A           00000000
2480000100830008001704943FONDO DE CESANTIAS PROTECCION 056059TES TASA FIJA TOTALES         0007560180000000000000000000000000000       00000000000000000007560180000000COL17CT03490210016ACOPTFIT163006322016063020320630000700000000000000000000+A           00000000
2480000100830008001704943FONDO DE CESANTIAS PROTECCION 056091TES UVR TASA CONVENIDA        0000051250000000000000000000000000000       00000000000000000000051250000000COL17CT03508210011AUVRTUVT111703272016031720270317000330000000000000000000+A           00000000
2480000100830008001704943FONDO DE CESANTIAS PROTECCION 056219TES TASA FIJA TOTALES         0005700000000000000000000000000000000       00000000000000000005700000000000COL17CT03557210008ACOPTFIT082611252017112620251126000625000000000000000000+A           00000000
2480000100830008001704943FONDO DE CESANTIAS PROTECCION 056377TES TASA FIJA TOTALES         0001900000000000000000000000000000000       00000000000000000001900000000000COL17CT03615210016ACOPTFIT161810342018101820341018000725000000000000000000+A           00000000
2480000100830008001704943FONDO DE CESANTIAS PROTECCION 056377TES TASA FIJA TOTALES         0001900000000000012019082015301884373CVSENCR00025000000000000004400000000000COL17CT03615210016ACOPTFIT161810342018101820341018000725000000000000000000+ARVC0000008720190820
2480000100830008001704943FONDO DE CESANTIAS PROTECCION 056414TES UVR TASA CONVENIDA        0000010800000000000000000000000000000       00000000000000000000010800000000COL17CT03623210018AUVRTUVT182502372019022520370225000375000000000000000000+A           00000000
2480000100900008001982810FDO PENSIONES VOLUNTARIAS PROT049936TES UVR TASA CONVENIDA        0000073226300000000000000000000000000       00000000000000000000073226300000COL17CT02088210017AUVRTUVT172302232006022320230223000475000000000000000000+A           00000000
2480000100900008001982810FDO PENSIONES VOLUNTARIAS PROT051927TES TASA FIJA TOTALES         0002429710000000000000000000000000000       00000000000000000002429710000000COL17CT02302210015ACOPTFIT152407202005072420200724001100000000000000000000+A           00000000
2480000100900008001982810FDO PENSIONES VOLUNTARIAS PROT053059TES TASA FIJA TOTALES         0028225000000000000000000000000000000       00000000000000000028225000000000COL17CT02385210016ACOPTFIT162407242008072420240724001000000000000000000000+A           00000000
2480000100900008001982810FDO PENSIONES VOLUNTARIAS PROT054542TES TASA FIJA TOTALES         0011375000000000000000000000000000000       00000000000000000011375000000000COL17CT02625210015ACOPTFIT152608262011082620260826000750000000000000000000+A           00000000
2480000100900008001982810FDO PENSIONES VOLUNTARIAS PROT054816TES TASA FIJA TOTALES         0047500000000000000000000000000000000       00000000000000000047500000000000COL17CT02864210010ACOPTFIT100405222012050420220504000700000000000000000000+A           00000000
2480000100900008001982810FDO PENSIONES VOLUNTARIAS PROT054876TES UVR TASA CONVENIDA        0000057901500000000000000000000000000       00000000000000000000057901500000COL17CT02872210010AUVRTUVT101003212011031020210310000350000000000000000000+A           00000000
2480000100900008001982810FDO PENSIONES VOLUNTARIAS PROT055029TES TASA FIJA TOTALES         0011800000000000000000000000000000000       00000000000000000011800000000000COL17CT02914210016ACOPTFIT162804282012042820280428000600000000000000000000+A           00000000
2480000100900008001982810FDO PENSIONES VOLUNTARIAS PROT055197TES UVR TASA CONVENIDA        0000013920000000000000000000000000000       00000000000000000000013920000000COL17CT02963210020AUVRTUVT202503332013032520330325000300000000000000000000+A           00000000
2480000100900008001982810FDO PENSIONES VOLUNTARIAS PROT055420TES TASA FIJA TOTALES         0000350000000000000000000000000000000       00000000000000000000350000000000COL17CT03011210006ACOPTFIT061109192013091120190911000700000000000000000000+A           00000000
2480000100900008001982810FDO PENSIONES VOLUNTARIAS PROT055684TES TASA FIJA TOTALES         0007525000000000000000000000000000000       00000000000000000007525000000000COL17CT03342210016ACOPTFIT161809302014091820300918000775000000000000000000+A           00000000
2480000100900008001982810FDO PENSIONES VOLUNTARIAS PROT055738TES UVR TASA CONVENIDA        0000027280000000000000000000000000000       00000000000000000000027280000000COL17CT03359210011AUVRTUVT110705252014050720250507000350000000000000000000+A           00000000
2480000100900008001982810FDO PENSIONES VOLUNTARIAS PROT055930TES UVR TASA CONVENIDA        0000042299000000000000000000000000000       00000000000000000000042299000000COL17CT03441210020AUVRTUVT200404352015040420350404000475000000000000000000+A           00000000
2480000100900008001982810FDO PENSIONES VOLUNTARIAS PROT056059TES TASA FIJA TOTALES         0007810170000000000000000000000000000       00000000000000000007810170000000COL17CT03490210016ACOPTFIT163006322016063020320630000700000000000000000000+A           00000000
2480000100900008001982810FDO PENSIONES VOLUNTARIAS PROT056091TES UVR TASA CONVENIDA        0000032719000000000000000000000000000       00000000000000000000032719000000COL17CT03508210011AUVRTUVT111703272016031720270317000330000000000000000000+A           00000000
2480000100900008001982810FDO PENSIONES VOLUNTARIAS PROT056219TES TASA FIJA TOTALES         0007175000000000000000000000000000000       00000000000000000007175000000000COL17CT03557210008ACOPTFIT082611252017112620251126000625000000000000000000+A           00000000
2480000100900008001982810FDO PENSIONES VOLUNTARIAS PROT056246TES UVR INVERS INSTITUCIONALES0000003345000000000000000000000000000       00000000000000000000003345000000COL17CT03565210032AUVRTUVT321606492017061620490616000375000000000000000000+A           00000000
2480000100900008001982810FDO PENSIONES VOLUNTARIAS PROT056377TES TASA FIJA TOTALES         0002900000000000000000000000000000000       00000000000000000002900000000000COL17CT03615210016ACOPTFIT161810342018101820341018000725000000000000000000+A           00000000
2480000100900008001982810FDO PENSIONES VOLUNTARIAS PROT056414TES UVR TASA CONVENIDA        0000008240000000000000000000000000000       00000000000000000000008240000000COL17CT03623210018AUVRTUVT182502372019022520370225000375000000000000000000+A           00000000
2480000101090008001865709FONDO DE PENSIONES SMURFIT DE 049936TES UVR TASA CONVENIDA        0000001755000000000000000000000000000       00000000000000000000001755000000COL17CT02088210017AUVRTUVT172302232006022320230223000475000000000000000000+A           00000000
2480000101090008001865709FONDO DE PENSIONES SMURFIT DE 053059TES TASA FIJA TOTALES         0000350000000000000000000000000000000       00000000000000000000350000000000COL17CT02385210016ACOPTFIT162407242008072420240724001000000000000000000000+A           00000000
2480000101090008001865709FONDO DE PENSIONES SMURFIT DE 054542TES TASA FIJA TOTALES         0000475000000000000000000000000000000       00000000000000000000475000000000COL17CT02625210015ACOPTFIT152608262011082620260826000750000000000000000000+A           00000000
2480000101090008001865709FONDO DE PENSIONES SMURFIT DE 054816TES TASA FIJA TOTALES         0000475000000000000000000000000000000       00000000000000000000475000000000COL17CT02864210010ACOPTFIT100405222012050420220504000700000000000000000000+A           00000000
2480000101090008001865709FONDO DE PENSIONES SMURFIT DE 054876TES UVR TASA CONVENIDA        0000001348500000000000000000000000000       00000000000000000000001348500000COL17CT02872210010AUVRTUVT101003212011031020210310000350000000000000000000+A           00000000
2480000101090008001865709FONDO DE PENSIONES SMURFIT DE 055029TES TASA FIJA TOTALES         0000350000000000000000000000000000000       00000000000000000000350000000000COL17CT02914210016ACOPTFIT162804282012042820280428000600000000000000000000+A           00000000
2480000101090008001865709FONDO DE PENSIONES SMURFIT DE 055197TES UVR TASA CONVENIDA        0000000560000000000000000000000000000       00000000000000000000000560000000COL17CT02963210020AUVRTUVT202503332013032520330325000300000000000000000000+A           00000000
2480000101090008001865709FONDO DE PENSIONES SMURFIT DE 055684TES TASA FIJA TOTALES         0000225000000000000000000000000000000       00000000000000000000225000000000COL17CT03342210016ACOPTFIT161809302014091820300918000775000000000000000000+A           00000000
2480000101090008001865709FONDO DE PENSIONES SMURFIT DE 055738TES UVR TASA CONVENIDA        0000000680000000000000000000000000000       00000000000000000000000680000000COL17CT03359210011AUVRTUVT110705252014050720250507000350000000000000000000+A           00000000
2480000101090008001865709FONDO DE PENSIONES SMURFIT DE 055930TES UVR TASA CONVENIDA        0000000971000000000000000000000000000       00000000000000000000000971000000COL17CT03441210020AUVRTUVT200404352015040420350404000475000000000000000000+A           00000000
2480000101090008001865709FONDO DE PENSIONES SMURFIT DE 056059TES TASA FIJA TOTALES         0000225000000000000000000000000000000       00000000000000000000225000000000COL17CT03490210016ACOPTFIT163006322016063020320630000700000000000000000000+A           00000000
2480000101090008001865709FONDO DE PENSIONES SMURFIT DE 056091TES UVR TASA CONVENIDA        0000000901000000000000000000000000000       00000000000000000000000901000000COL17CT03508210011AUVRTUVT111703272016031720270317000330000000000000000000+A           00000000
2480000101090008001865709FONDO DE PENSIONES SMURFIT DE 056219TES TASA FIJA TOTALES         0000175000000000000000000000000000000       00000000000000000000175000000000COL17CT03557210008ACOPTFIT082611252017112620251126000625000000000000000000+A           00000000
2480000101090008001865709FONDO DE PENSIONES SMURFIT DE 056246TES UVR INVERS INSTITUCIONALES0000000155000000000000000000000000000       00000000000000000000000155000000COL17CT03565210032AUVRTUVT321606492017061620490616000375000000000000000000+A           00000000
2480000101090008001865709FONDO DE PENSIONES SMURFIT DE 056377TES TASA FIJA TOTALES         0000100000000000000000000000000000000       00000000000000000000100000000000COL17CT03615210016ACOPTFIT161810342018101820341018000725000000000000000000+A           00000000
2480000101090008001865709FONDO DE PENSIONES SMURFIT DE 056414TES UVR TASA CONVENIDA        0000000152000000000000000000000000000       00000000000000000000000152000000COL17CT03623210018AUVRTUVT182502372019022520370225000375000000000000000000+A           00000000
2480000101160008002297396FONDO DE PENSIONES OBLIGATORIA049936TES UVR TASA CONVENIDA        0001432576600000000000000000000000000       00000000000000000001432576600000COL17CT02088210017AUVRTUVT172302232006022320230223000475000000000000000000+A           00000000
2480000101160008002297396FONDO DE PENSIONES OBLIGATORIA051927TES TASA FIJA TOTALES         0000063680000000000000000000000000000       00000000000000000000063680000000COL17CT02302210015ACOPTFIT152407202005072420200724001100000000000000000000+A           00000000
2480000101160008002297396FONDO DE PENSIONES OBLIGATORIA053059TES TASA FIJA TOTALES         0119076390000000000000000000000000000       00000000000000000119076390000000COL17CT02385210016ACOPTFIT162407242008072420240724001000000000000000000000+A           00000000
2480000101160008002297396FONDO DE PENSIONES OBLIGATORIA054542TES TASA FIJA TOTALES         0092854750000000000000000000000000000       00000000000000000092854750000000COL17CT02625210015ACOPTFIT152608262011082620260826000750000000000000000000+A           00000000
2480000101160008002297396FONDO DE PENSIONES OBLIGATORIA054816TES TASA FIJA TOTALES         0000052320000000000000000000000000000       00000000000000000000052320000000COL17CT02864210010ACOPTFIT100405222012050420220504000700000000000000000000+A           00000000
2480000101160008002297396FONDO DE PENSIONES OBLIGATORIA054876TES UVR TASA CONVENIDA        0000629799900000000000000000000000000       00000000000000000000629799900000COL17CT02872210010AUVRTUVT101003212011031020210310000350000000000000000000+A           00000000
2480000101160008002297396FONDO DE PENSIONES OBLIGATORIA055029TES TASA FIJA TOTALES         0151145790000000000000000000000000000       00000000000000000151145790000000COL17CT02914210016ACOPTFIT162804282012042820280428000600000000000000000000+A           00000000
2480000101160008002297396FONDO DE PENSIONES OBLIGATORIA055197TES UVR TASA CONVENIDA        0000327314300000000000000000000000000       00000000000000000000327314300000COL17CT02963210020AUVRTUVT202503332013032520330325000300000000000000000000+A           00000000
2480000101160008002297396FONDO DE PENSIONES OBLIGATORIA055420TES TASA FIJA TOTALES         0000050000000000000000000000000000000       00000000000000000000050000000000COL17CT03011210006ACOPTFIT061109192013091120190911000700000000000000000000+A           00000000
2480000101160008002297396FONDO DE PENSIONES OBLIGATORIA055684TES TASA FIJA TOTALES         0171435080000000000000000000000000000       00000000000000000171435080000000COL17CT03342210016ACOPTFIT161809302014091820300918000775000000000000000000+A           00000000
2480000101160008002297396FONDO DE PENSIONES OBLIGATORIA055738TES UVR TASA CONVENIDA        0000924565200000000000000000000000000       00000000000000000000924565200000COL17CT03359210011AUVRTUVT110705252014050720250507000350000000000000000000+A           00000000
2480000101160008002297396FONDO DE PENSIONES OBLIGATORIA055930TES UVR TASA CONVENIDA        0000624921900000000000000000000000000       00000000000000000000624921900000COL17CT03441210020AUVRTUVT200404352015040420350404000475000000000000000000+A           00000000
2480000101160008002297396FONDO DE PENSIONES OBLIGATORIA056059TES TASA FIJA TOTALES         0133101800000000000000000000000000000       00000000000000000133101800000000COL17CT03490210016ACOPTFIT163006322016063020320630000700000000000000000000+A           00000000
2480000101160008002297396FONDO DE PENSIONES OBLIGATORIA056091TES UVR TASA CONVENIDA        0000942054000000000000000000000000000       00000000000000000000942054000000COL17CT03508210011AUVRTUVT111703272016031720270317000330000000000000000000+A           00000000
2480000101160008002297396FONDO DE PENSIONES OBLIGATORIA056219TES TASA FIJA TOTALES         0033495920000000000000000000000000000       00000000000000000033495920000000COL17CT03557210008ACOPTFIT082611252017112620251126000625000000000000000000+A           00000000
2480000101160008002297396FONDO DE PENSIONES OBLIGATORIA056246TES UVR INVERS INSTITUCIONALES0000017894800000000000000000000000000       00000000000000000000017894800000COL17CT03565210032AUVRTUVT321606492017061620490616000375000000000000000000+A           00000000
2480000101160008002297396FONDO DE PENSIONES OBLIGATORIA056377TES TASA FIJA TOTALES         0056039600000000000000000000000000000       00000000000000000056039600000000COL17CT03615210016ACOPTFIT161810342018101820341018000725000000000000000000+A           00000000
2480000101160008002297396FONDO DE PENSIONES OBLIGATORIA056414TES UVR TASA CONVENIDA        0000079655700000000000000000000000000       00000000000000000000079655700000COL17CT03623210018AUVRTUVT182502372019022520370225000375000000000000000000+A           00000000
2480000243510009003797591FONDO DE PENSIONES OBLIGATORIA049936TES UVR TASA CONVENIDA        0000195002700000000000000000000000000       00000000000000000000195002700000COL17CT02088210017AUVRTUVT172302232006022320230223000475000000000000000000+A           00000000
2480000243510009003797591FONDO DE PENSIONES OBLIGATORIA051927TES TASA FIJA TOTALES         0000714200000000000000000000000000000       00000000000000000000714200000000COL17CT02302210015ACOPTFIT152407202005072420200724001100000000000000000000+A           00000000
2480000243510009003797591FONDO DE PENSIONES OBLIGATORIA053059TES TASA FIJA TOTALES         0012784640000000000000000000000000000       00000000000000000012784640000000COL17CT02385210016ACOPTFIT162407242008072420240724001000000000000000000000+A           00000000
2480000243510009003797591FONDO DE PENSIONES OBLIGATORIA054542TES TASA FIJA TOTALES         0009600000000000000000000000000000000       00000000000000000009600000000000COL17CT02625210015ACOPTFIT152608262011082620260826000750000000000000000000+A           00000000
2480000243510009003797591FONDO DE PENSIONES OBLIGATORIA054816TES TASA FIJA TOTALES         0025542450000000000000000000000000000       00000000000000000025542450000000COL17CT02864210010ACOPTFIT100405222012050420220504000700000000000000000000+A           00000000
2480000243510009003797591FONDO DE PENSIONES OBLIGATORIA054876TES UVR TASA CONVENIDA        0000220000000000000000000000000000000       00000000000000000000220000000000COL17CT02872210010AUVRTUVT101003212011031020210310000350000000000000000000+A           00000000
2480000243510009003797591FONDO DE PENSIONES OBLIGATORIA055029TES TASA FIJA TOTALES         0019900000000000000000000000000000000       00000000000000000019900000000000COL17CT02914210016ACOPTFIT162804282012042820280428000600000000000000000000+A           00000000
2480000243510009003797591FONDO DE PENSIONES OBLIGATORIA055197TES UVR TASA CONVENIDA        0000028000000000000000000000000000000       00000000000000000000028000000000COL17CT02963210020AUVRTUVT202503332013032520330325000300000000000000000000+A           00000000
2480000243510009003797591FONDO DE PENSIONES OBLIGATORIA055684TES TASA FIJA TOTALES         0007373210000000000000000000000000000       00000000000000000007373210000000COL17CT03342210016ACOPTFIT161809302014091820300918000775000000000000000000+A           00000000
2480000243510009003797591FONDO DE PENSIONES OBLIGATORIA055738TES UVR TASA CONVENIDA        0000097500000000000000000000000000000       00000000000000000000097500000000COL17CT03359210011AUVRTUVT110705252014050720250507000350000000000000000000+A           00000000
2480000243510009003797591FONDO DE PENSIONES OBLIGATORIA055930TES UVR TASA CONVENIDA        0000119802400000000000000000000000000       00000000000000000000119802400000COL17CT03441210020AUVRTUVT200404352015040420350404000475000000000000000000+A           00000000
2480000243510009003797591FONDO DE PENSIONES OBLIGATORIA056059TES TASA FIJA TOTALES         0015950000000000000000000000000000000       00000000000000000015950000000000COL17CT03490210016ACOPTFIT163006322016063020320630000700000000000000000000+A           00000000
2480000243510009003797591FONDO DE PENSIONES OBLIGATORIA056091TES UVR TASA CONVENIDA        0000172749300000000000000000000000000       00000000000000000000172749300000COL17CT03508210011AUVRTUVT111703272016031720270317000330000000000000000000+A           00000000
2480000243510009003797591FONDO DE PENSIONES OBLIGATORIA056219TES TASA FIJA TOTALES         0026000000000000000000000000000000000       00000000000000000026000000000000COL17CT03557210008ACOPTFIT082611252017112620251126000625000000000000000000+A           00000000
2480000243510009003797591FONDO DE PENSIONES OBLIGATORIA056377TES TASA FIJA TOTALES         0013400000000000000000000000000000000       00000000000000000013400000000000COL17CT03615210016ACOPTFIT161810342018101820341018000725000000000000000000+A           00000000
2480000243510009003797591FONDO DE PENSIONES OBLIGATORIA056414TES UVR TASA CONVENIDA        0000011100000000000000000000000000000       00000000000000000000011100000000COL17CT03623210018AUVRTUVT182502372019022520370225000375000000000000000000+A           00000000
2480000243670009003798967FONDO DE PENSIONES OBLIGATORIA049936TES UVR TASA CONVENIDA        0000015387500000000000000000000000000       00000000000000000000015387500000COL17CT02088210017AUVRTUVT172302232006022320230223000475000000000000000000+A           00000000
2480000243670009003798967FONDO DE PENSIONES OBLIGATORIA053059TES TASA FIJA TOTALES         0000039800000000000000000000000000000       00000000000000000000039800000000COL17CT02385210016ACOPTFIT162407242008072420240724001000000000000000000000+A           00000000
2480000243670009003798967FONDO DE PENSIONES OBLIGATORIA054542TES TASA FIJA TOTALES         0004950000000000000000000000000000000       00000000000000000004950000000000COL17CT02625210015ACOPTFIT152608262011082620260826000750000000000000000000+A           00000000
2480000243670009003798967FONDO DE PENSIONES OBLIGATORIA054876TES UVR TASA CONVENIDA        0000001600000000000000000000000000000       00000000000000000000001600000000COL17CT02872210010AUVRTUVT101003212011031020210310000350000000000000000000+A           00000000
2480000243670009003798967FONDO DE PENSIONES OBLIGATORIA055029TES TASA FIJA TOTALES         0006250000000000000000000000000000000       00000000000000000006250000000000COL17CT02914210016ACOPTFIT162804282012042820280428000600000000000000000000+A           00000000
2480000243670009003798967FONDO DE PENSIONES OBLIGATORIA055197TES UVR TASA CONVENIDA        0000004000000000000000000000000000000       00000000000000000000004000000000COL17CT02963210020AUVRTUVT202503332013032520330325000300000000000000000000+A           00000000
2480000243670009003798967FONDO DE PENSIONES OBLIGATORIA055684TES TASA FIJA TOTALES         0001300000000000000000000000000000000       00000000000000000001300000000000COL17CT03342210016ACOPTFIT161809302014091820300918000775000000000000000000+A           00000000
2480000243670009003798967FONDO DE PENSIONES OBLIGATORIA055738TES UVR TASA CONVENIDA        0000007000000000000000000000000000000       00000000000000000000007000000000COL17CT03359210011AUVRTUVT110705252014050720250507000350000000000000000000+A           00000000
2480000243670009003798967FONDO DE PENSIONES OBLIGATORIA055930TES UVR TASA CONVENIDA        0000013600000000000000000000000000000       00000000000000000000013600000000COL17CT03441210020AUVRTUVT200404352015040420350404000475000000000000000000+A           00000000
2480000243670009003798967FONDO DE PENSIONES OBLIGATORIA056059TES TASA FIJA TOTALES         0001408140000000000000000000000000000       00000000000000000001408140000000COL17CT03490210016ACOPTFIT163006322016063020320630000700000000000000000000+A           00000000
2480000243670009003798967FONDO DE PENSIONES OBLIGATORIA056091TES UVR TASA CONVENIDA        0000012500000000000000000000000000000       00000000000000000000012500000000COL17CT03508210011AUVRTUVT111703272016031720270317000330000000000000000000+A           00000000
2480000243670009003798967FONDO DE PENSIONES OBLIGATORIA056219TES TASA FIJA TOTALES         0000800000000000000000000000000000000       00000000000000000000800000000000COL17CT03557210008ACOPTFIT082611252017112620251126000625000000000000000000+A           00000000
2480000243670009003798967FONDO DE PENSIONES OBLIGATORIA056377TES TASA FIJA TOTALES         0014750000000000000000000000000000000       00000000000000000014750000000000COL17CT03615210016ACOPTFIT161810342018101820341018000725000000000000000000+A           00000000
2480000243670009003798967FONDO DE PENSIONES OBLIGATORIA056414TES UVR TASA CONVENIDA        0000007000000000000000000000000000000       00000000000000000000007000000000COL17CT03623210018AUVRTUVT182502372019022520370225000375000000000000000000+A           00000000
2480000243740009003799214FONDO DE PENSIONES OBLIGATORIA049936TES UVR TASA CONVENIDA        0000556965700000000000000000000000000       00000000000000000000556965700000COL17CT02088210017AUVRTUVT172302232006022320230223000475000000000000000000+A           00000000
2480000243740009003799214FONDO DE PENSIONES OBLIGATORIA053059TES TASA FIJA TOTALES         0004302160000000000000000000000000000       00000000000000000004302160000000COL17CT02385210016ACOPTFIT162407242008072420240724001000000000000000000000+A           00000000
2480000243740009003799214FONDO DE PENSIONES OBLIGATORIA054542TES TASA FIJA TOTALES         0004691510000000000000000000000000000       00000000000000000004691510000000COL17CT02625210015ACOPTFIT152608262011082620260826000750000000000000000000+A           00000000
2480000243740009003799214FONDO DE PENSIONES OBLIGATORIA054816TES TASA FIJA TOTALES         0001584910000000000000000000000000000       00000000000000000001584910000000COL17CT02864210010ACOPTFIT100405222012050420220504000700000000000000000000+A           00000000
2480000243740009003799214FONDO DE PENSIONES OBLIGATORIA054876TES UVR TASA CONVENIDA        0000287500000000000000000000000000000       00000000000000000000287500000000COL17CT02872210010AUVRTUVT101003212011031020210310000350000000000000000000+A           00000000
2480000243740009003799214FONDO DE PENSIONES OBLIGATORIA055029TES TASA FIJA TOTALES         0004300000000000000000000000000000000       00000000000000000004300000000000COL17CT02914210016ACOPTFIT162804282012042820280428000600000000000000000000+A           00000000
2480000243740009003799214FONDO DE PENSIONES OBLIGATORIA055197TES UVR TASA CONVENIDA        0000113499700000000000000000000000000       00000000000000000000113499700000COL17CT02963210020AUVRTUVT202503332013032520330325000300000000000000000000+A           00000000
2480000243740009003799214FONDO DE PENSIONES OBLIGATORIA055684TES TASA FIJA TOTALES         0002242500000000000000000000000000000       00000000000000000002242500000000COL17CT03342210016ACOPTFIT161809302014091820300918000775000000000000000000+A           00000000
2480000243740009003799214FONDO DE PENSIONES OBLIGATORIA055738TES UVR TASA CONVENIDA        0000176521800000000000000000000000000       00000000000000000000176521800000COL17CT03359210011AUVRTUVT110705252014050720250507000350000000000000000000+A           00000000
2480000243740009003799214FONDO DE PENSIONES OBLIGATORIA055930TES UVR TASA CONVENIDA        0000455942700000000000000000000000000       00000000000000000000455942700000COL17CT03441210020AUVRTUVT200404352015040420350404000475000000000000000000+A           00000000
2480000243740009003799214FONDO DE PENSIONES OBLIGATORIA056059TES TASA FIJA TOTALES         0006450000000000000000000000000000000       00000000000000000006450000000000COL17CT03490210016ACOPTFIT163006322016063020320630000700000000000000000000+A           00000000
2480000243740009003799214FONDO DE PENSIONES OBLIGATORIA056091TES UVR TASA CONVENIDA        0000372617100000000000000000000000000       00000000000000000000372617100000COL17CT03508210011AUVRTUVT111703272016031720270317000330000000000000000000+A           00000000
2480000243740009003799214FONDO DE PENSIONES OBLIGATORIA056091TES UVR TASA CONVENIDA        0000372617100000012019082015301884372CVSENCR00000050000000000000377617100000COL17CT03508210011AUVRTUVT111703272016031720270317000330000000000000000000+ARVC0000015920190820
2480000243740009003799214FONDO DE PENSIONES OBLIGATORIA056091TES UVR TASA CONVENIDA        0000377617100000012019082016070884280CVCPACR00000009059000000000378523000000COL17CT03508210011AUVRTUVT111703272016031720270317000330000000000000000000+AOMA1D      20190820
2480000243740009003799214FONDO DE PENSIONES OBLIGATORIA056246TES UVR INVERS INSTITUCIONALES0000080000000000000000000000000000000       00000000000000000000080000000000COL17CT03565210032AUVRTUVT321606492017061620490616000375000000000000000000+A           00000000
2480000243740009003799214FONDO DE PENSIONES OBLIGATORIA056377TES TASA FIJA TOTALES         0001300000000000000000000000000000000       00000000000000000001300000000000COL17CT03615210016ACOPTFIT161810342018101820341018000725000000000000000000+A           00000000
2480000243740009003799214FONDO DE PENSIONES OBLIGATORIA056414TES UVR TASA CONVENIDA        0000187800000000000000000000000000000       00000000000000000000187800000000COL17CT03623210018AUVRTUVT182502372019022520370225000375000000000000000000+A           00000000
2480000243990009006466209PASIVOS PENSIONALES PROTECCION051927TES TASA FIJA TOTALES         0000200000000000000000000000000000000       00000000000000000000200000000000COL17CT02302210015ACOPTFIT152407202005072420200724001100000000000000000000+A           00000000
2480000243990009006466209PASIVOS PENSIONALES PROTECCION054816TES TASA FIJA TOTALES         0000150000000000000000000000000000000       00000000000000000000150000000000COL17CT02864210010ACOPTFIT100405222012050420220504000700000000000000000000+A           00000000
2480000243990009006466209PASIVOS PENSIONALES PROTECCION054876TES UVR TASA CONVENIDA        0000000400000000000000000000000000000       00000000000000000000000400000000COL17CT02872210010AUVRTUVT101003212011031020210310000350000000000000000000+A           00000000
2480000243990009006466209PASIVOS PENSIONALES PROTECCION055029TES TASA FIJA TOTALES         0000200000000000000000000000000000000       00000000000000000000200000000000COL17CT02914210016ACOPTFIT162804282012042820280428000600000000000000000000+A           00000000
